:02000000D22A02
:0E000600F201F101F001F801F30100300800F1
:100014007B15FB1F14280130F300F201F101F001FC
:08002400FA0DF20CFF30080098
:08002C00FA1FF2130030080076
:1000340083120313F8010830FC00700DF80D7408E6
:10004400F80203182728F8070310F00DFC0B1F28EB
:020054000800A2
:100056000E3083120313FD00FD0B2F28000008004D
:06006600FB15FF3008004D
:10006C007B14FB1F4128F201FA1FFF30F200F10054
:0A007C00F000FA0DF20CFF3008004E
:10008600FB14FB1F4D28FF30F300F200F100F000D7
:08009600FA0DF20CFF30080026
:10009E00831603139818552800004F28350883122D
:0400AE0099000800AD
:0E00B2008316031331088A003008820008000C
:1000C000A0017208031D75287108F2007008F10084
:1000D000F001A0157208031D75287108F200F101E6
:1000E000A01120167208031983282008F302031DAB
:1000F000031C87280310F21B8B28F00DF10DF20D65
:10010000F30B7B2887280130FC0003208E28023067
:0E011000FC000A208E280430FC001620080097
:10011E0083120313FB017308031D77080319E628E6
:10012E0072087606FA007708F3077E30031CA328C0
:10013E00F3020318E928A628F302031CEC28720820
:10014E00F8007108FC007008FD00F817F617031090
:10015E00F201F101F0011830A0007D1CC0287408D6
:10016E00F00775080318750FF10776080318760F58
:10017E00F207F20CF10CF00CF80CFC0CFD0C031059
:10018E00A00BB428F21BD028F80DF00DF10DF20DD6
:10019E00F3037B1B701CE228F81FE228F00A0319F8
:1001AE00F10A0319F20A031DE228F20CF10CF00C0D
:1001BE00F30A0319E928FA1FF2130030EE28013072
:1001CE000320EE2802304320EE2804300A200000DF
:0201DE00080017
:1001E000831203137008F8007108F000F101F201A6
:1001F000F301FB01FC019630F300FA017008F100F5
:0C0200007808F000F801F201602008000E
:10020C0083160313B30183126F088400000883164E
:10021C00B2003208003A031920293208B5004F20E9
:10022C008316B30A330883126F0784000008831601
:06023C00B2000F290800CA
:1002420083120313FB01FC01FA01730803194E29FF
:10025200FA13F2178630F302F31B322903193229FB
:100262005029F309F30A08307302031C3F29F300F3
:10027200F20DF2017308031D0310462973080319D6
:1002820046290310F20CF30B42297B1B721C4E29E8
:10029200031C4E29F20A03195529F10158297B142E
:1002A200FB1F5B29F1015B290130FC005D29003055
:1002B200FC005D29FF30FC00FC080319612936208F
:0602C2007208F0000800C4
:1002C800831603133208F200720884000008031929
:1002D8006F29F20A68297208F100F20A3308F0005F
:1002E800B30A700884000008F000710884007008E0
:1002F8008000710884000008031983296F293208D7
:04030800F0000800F9
:10030C00831603133208F2007208F100F20A330864
:10031C00F000B30A700884000008F0007108840033
:10032C007008800071088400000803199E298A292E
:06033C003208F000080089
:10034200831203139F01C0309F0483161F179F1748
:1003520083126F08F000F00D7010F00D7010F00DA8
:10036200701070089F041F142B201F151F1DBB291E
:100372000000B7291F101E08F100F00183161E08A5
:08038200F0040030F104080052
:10038A00831203137408003A031DE0297508003A22
:10039A00031DE0297608003A031DE0297708003A90
:1003AA00031DE029FF30F000FF30F1007F30F2003A
:1003BA00FF30F3007B2A83120313770803196F2A8D
:1003CA0073080319722A720876068039FA00F2173E
:1003DA00F617A0017208F8007108FC007008FD0009
:1003EA007408FD027508031C750FFC027608031CCD
:1003FA00760FF802F801FC01FD01031C0B2A031019
:10040A00F20CF10CF00CF80C0130A0007708F302A2
:10041A00031C152A7E302007F3070318752A1A2AA7
:10042A007E302007F307031C782A1830FA07FD0DDF
:10043A00FC0DF80DF00DF10DF20DA00D7408F0028F
:10044A007508031C750FF1027608031C760FF20279
:10045A00760DA004201C332A7D143E2A7408F00766
:10046A0075080318750FF10776080318760AF2075C
:10047A007D10FA031F307A05031D1C2A7B1B7D1C85
:10048A00652A0310F00DF10DF20DA00D7408F002AB
:10049A007508031C750FF1027608031C760FF20229
:1004AA00760D20040139FD070318FC0A0319F80A1E
:1004BA00031D652AF80CFC0CFD0CF30A0319752AB6
:1004CA00FA1FF8137808F2007C08F1007D08F000A2
:1004DA0000307A2A013033207A2A023003207A2A1D
:0E04EA00043043207A2A08300A20000008005F
:1004F80083120313EF0103306F0203188C2A6F086D
:10050800831633078400203080008312EF0A7F2A85
:100518006F0883163307840080018312EF036F0886
:1005280083163307B4000A30F4003208F0001A20AA
:100538007808F0003030F00783163408840070081B
:1005480080000A30F4003208F0001A207008831680
:10055800B2007008003A031DB22AB52A8312EF03CD
:04056800932A0800CA
:10056C0083160313981690308312980083168717FE
:10057C00071383128C1EC52A1A08F000BF2A080024
:10058C0059208A110A128000840AB00A0319B10A90
:08059C00F003031DC62A08004C
:1005A400AC2333308316031399001815B622023096
:1005B400FB000430FC00BA30FD00FD0BDF2AFC0B0D
:1005C400DF2AFB0BDF2A00008316071405144130D1
:1005D40083129F000E3083169F0083163830B200BA
:1005E400A030B30086218312EF01A121F020003056
:1005F400F4000030F5007A30F6008730F7008F20E1
:100604000030F400C030F5007F30F6008830F70089
:10061400C521212170088316B2006A30B3007C2200
:10062400383083160313B2006A30B30064213830C3
:10063400B2002130B30064218312071C282B383008
:100644008316B2003230B30064212E2B8316383067
:10065400B2003530B300642138308312EF00062134
:100664000D30B5004F200A308316B5004F203330CB
:10067400FB00BB30FC00DF30FD00FD0B3F2BFC0B0F
:0E0684003F2BFB0B3F2B00000000EF2A482B02
:1007580021308400493083120313F0004E30831691
:10076800B0000330B100C622A0308400103003135B
:10077800F00097308316B0000330B100C6226A300B
:10078800840005300313F000A7308316B00003304F
:06079800B100C6220800BA
:10069C002C34223462347534743474346F346E34C4
:1006AC005F347334743461347434653422343A34C2
:0206BC00003408
:0606BE0031347D340034EC
:0606C40030347D340034E7
:1006CA000034003400340034003400340034003480
:1006DA000034003400340034003400340034003470
:1006EA000034003400340034003400340034003460
:1006FA000034003400340034003400340034003450
:10070A00003400340034003400340034003400343F
:10071A00003400340034003400340034003400342F
:04072A000034003463
:10072E007B342234743465346D34703465347234F1
:10073E006134743475347234653422343A3400348E
:0A074E00003400340034003400349D
:02400E007A3BFB
:00000001FF
